:100000000C942E000C944B000C94C0020C9405022E
:100010000C949C020C944B000C944B000C944B00E1
:100020000C944B000C94B0020C944B000C944B00BD
:100030000C944B000C945A000C944B000C944B0005
:100040000C944B000C944B000C944B000C944B0004
:100050000C944B000C944B000C944B0011241FBECD
:10006000CFEFD4E0DEBFCDBF11E0A0E0B1E0ECE720
:10007000F6E102C005900D92A837B107D9F711E05B
:10008000A8E7B1E001C01D92A83BB107E1F70E94CB
:10009000AF080C943C0B0C9400008091890187BD43
:1000A00080918B01882319F02B9A299808952B9819
:1000B000299A08951F920F920FB60F9211242F9331
:1000C0003F934F938F939F934091C60080918101FE
:1000D000882331F18091860190918701342F20E0AF
:1000E000280F391F30938701209386018091860164
:1000F0009091870197FD20C08091860190918701A2
:100100009093A1018093A001109281019F918F9102
:100110004F913F912F910F900FBE0F901F90189508
:10012000842F90E0909387018093860180918101D4
:100130008F5F80938101EACF809186019091870142
:10014000805090489093870180938601809186012A
:1001500090918701909581959F4F9093A1018093F5
:10016000A001D2CFEF92FF920F931F9380917A005C
:10017000806480937A0080917A0086FDFCCF609144
:10018000780070E080E090E00E945B097B018C01C8
:1001900020917900722F60E0882777FD8095982F55
:1001A0000E945D09A80197010E94C20822E333E37F
:1001B00043ED5BE30E94B20A1F910F91FF90EF9015
:1001C0000895EF92FF920F931F93CF93DF93409187
:1001D000A2015091A301CA019C0197FD76C0205352
:1001E00035474CF0CA0160E375E70E94150B909308
:1001F000A3018093A201E090B401F090B5010091B9
:10020000B6011091B701C801B70120E030E048EC19
:1002100052E40E94B20A0E942A09EB0177FD51C004
:10022000C0937E01C801B7010E942A0977FD41C031
:100230008D2F992787FD9A95809383018091C00027
:1002400085FFFCCF8FEF8093C6008091C00085FFB3
:10025000FCCF8FEF8093C6008091C00085FFFCCF5C
:100260008FEF8093C6008091C00085FFFCCF809106
:1002700083018093C6008091C00085FFFCCF8091F0
:100280007E018093C6008091C00085FFFCCF9091D5
:10029000830180917E01890F8093C6008091C00008
:1002A00085FFFCCFDF91CF911F910F91FF90EF90D1
:1002B00008958D2F992787FD9A9580588093830103
:1002C000BDCFD095C195DF4FABCF309521953F4F36
:1002D00086CF6091A2017091A301882777FD809558
:1002E000982F0E945D092BE330E74EE45CE30E9407
:1002F000B20A6093B4017093B5018093B6019093F4
:10030000B70180917B01813079F080E090E0A0E03E
:10031000B0E080938E0190938F01A0939001B093F1
:10032000910110927D010895609178017091790199
:100330008DE091E30E94150B882777FD8095982F1B
:100340000E945D0960938E0170938F0180939001EC
:100350009093910110927D010895089580E8809313
:10036000610083E0809361001092700088E08093C8
:10037000B60088EC8093B30010926E0081E0809309
:1003800081008093B0002091B6008091B60090E08B
:100390008470907030E021703070822B932B892B09
:1003A00091F74FEF51E046BB47BB1092850010928A
:1003B00084001092B200B99BFECF10928100B09BD6
:1003C00008C0809166008F5F809366005093810023
:1003D000EACF9091840080918500382F20E0B90108
:1003E000690F711DCB0178E18B36970734F080914E
:1003F0006600815080936600E9CF885E97410CF3D8
:1004000081E080938100089508951F920F920FB6A6
:100410000F9211242F933F934F935F938F939F934A
:1004200080918501882321F123B12478822F90E0E7
:10043000847090709595879595958795382F221F94
:100440002227221F8130F1F02093820130937C011A
:1004500081E08093850180937B019F918F915F91D3
:100460004F913F912F910F900FBE0F901F901895B5
:1004700081E080936F001092850010928400809339
:100480008501EBCF80917C018823F1F6213051F179
:100490008091A2019091A30101969093A301809372
:1004A000A2018091840090918500892BB1F4809104
:1004B00084009091850044275527481B590B509381
:1004C0007901409378011092850010928400809108
:1004D0007D018F5F80937D01B7CF40918400509163
:1004E0008500EDCF8091A2019091A3010197909397
:1004F000A3018093A2018091840090918500892BB3
:10050000B1F0809184009091850044275527481BC5
:10051000590B509379014093780110928500109205
:10052000840080917D01815080937D018DCF409129
:10053000840050918500EDCF1F920F920FB60F925D
:1005400011248F939F9381E090E09093800180939A
:100550007F019F918F910F900FBE0F901F90189564
:100560001F920F920FB60F92112410927B011092DE
:100570006F00109285010F900FBE0F901F9018957D
:100580001F920F920FB60F9211248F939F938CB1ED
:1005900080958C7083FF11C080E48CBB90E08091CB
:1005A000B301813009F091E09093B3019F918F9155
:1005B0000F900FBE0F901F90189580E48CBB9F91F9
:1005C0008F910F900FBE0F901F9018952F923F9212
:1005D0004F925F926F927F928F929F92AF92BF9253
:1005E000CF92DF92EF92FF920F931F93DF93CF93FF
:1005F000CDB7DEB7AC970FB6F894DEBF0FBECDBF58
:100600008091890187BD80918B01882309F4F6C30D
:100610002B9A29986091A2017091A301882777FDF8
:100620008095982F0E945D092BE330E74EE45CE350
:100630000E94B20A7B018C016093B4017093B501F2
:100640008093B6019093B70180917B01813009F4CA
:10065000FEC380E090E0A0E0B0E080938E01909334
:100660008F01A0939001B093910110927D01609150
:10067000A0017091A101882777FD8095982F0E9495
:100680005D092091040130910501409106015091CE
:1006900007010E94B20AA80197010E94C1086D8F4C
:1006A0007E8F8F8F98A38091B001882309F469C34E
:1006B0008091A4019091A501A091A601B091A701FC
:1006C000898B9A8BAB8BBC8B80910C0190910D0127
:1006D000A0910E01B0910F0189879A87AB87BC87E3
:1006E0009091140199A7A0911501AAA7B0911601A4
:1006F000BBA7E0911701ECA769897A898B899C894E
:1007000029A53A2F4B2F5E2F0E94AE0A88230CF4A6
:100710001AC389A59AA5ABA5BCA5898B9A8BAB8B6F
:10072000BC8B6D8D7E8D8F8D98A1209108013091AD
:10073000090140910A0150910B010E94B20A2989D6
:100740003A894B895C890E94C20820918E013091C0
:100750008F0140919001509191010E94C108698FD1
:100760007A8F8B8F9C8F8091B101882309F4C8C246
:100770008091A8019091A901A091AA01B091AB012B
:100780008D879E87AF87B88B809120019091210142
:10079000A0912201B09123018D839E83AF83B887FE
:1007A000909128019DA3A0912901AEA3B0912A01A7
:1007B000BFA3E0912B01E8A76D857E858F85988981
:1007C0002DA13A2F4B2F5E2F0E94AE0A88230CF4E6
:1007D00079C28DA19EA1AFA1B8A58D879E87AF8755
:1007E000B88B698D7A8D8B8D9C8D20911C013091F9
:1007F0001D0140911E0150911F010E94B20A2D85DA
:100800003E854F8558890E94C2083B014C01609388
:100810009401709395018093960190939701E090D5
:100820009C01F0909D0100919E0110919F016091AB
:1008300034017091350180913601909137012091FA
:1008400098013091990140919A0150919B010E9429
:10085000B20A9B01AC01C801B7010E94C1086D8BAF
:100860007E8B8F8B988F8091B201882309F409C207
:100870002090AC013090AD014090AE015090AF019E
:100880008091380190913901A0913A01B0913B01DA
:1008900089839A83AB83BC839091400199A3A091F3
:1008A0004101AAA3B0914201BBA3E0914301ECA393
:1008B000C201B10129A13A2F4B2F5E2F0E94AE0A2F
:1008C00088230CF4C4C189A19AA1ABA1BCA11C01CD
:1008D0002D01209130013091310140913201509130
:1008E0003301909172018091B30198170CF08DC182
:1008F000E0900001F09001010091020110910301CC
:10090000C801B7012091500130915101409152012D
:10091000509153010E94B20A0E94980920E030E0F1
:1009200040E857E40E94B2097B018C01570168013D
:10093000C801B70120E030E040E050E00E94260905
:1009400088230CF47AC2C801B7010E942F09CB0199
:1009500090938A01809389011092930110929201E1
:1009600080917A00806480937A0080917A0086FD7D
:10097000FCCF6091780070E080E090E00E945B091D
:100980007B018C0120917900722F60E0882777FD30
:100990008095982F0E945D099B01AC01C801B701A9
:1009A0000E94C20822E333E343ED5BE30E94B20AF4
:1009B000609398017093990180939A0190939B01A1
:1009C000C401B30120E030E040E050E00E9426097D
:1009D00088230CF423C2C401B30120E030E040E0DE
:1009E00050E00E94AE0A181654F410928B016092E7
:1009F0009C0170929D0180929E0190929F01C40182
:100A0000B30120E030E040E050E00E942609882356
:100A100061F480E090E0A0E0B0E080939C019093CE
:100A20009D01A0939E01B0939F011092B0016D8D26
:100A30007E8D8F8D98A129853A854B855C850E9496
:100A4000B20A29893A894B895C890E94C2087B01D4
:100A50008C016093A4017093A5018093A6019093EB
:100A6000A70169A57AA58BA59CA5A80197010E945D
:100A7000260918160CF4AFC089A59AA5ABA5BCA58C
:100A80008093A4019093A501A093A601B093A70120
:100A90001092B101698D7A8D8B8D9C8D2D813E8157
:100AA0004F8158850E94B20A2D853E854F85588911
:100AB0000E94C2087B018C016093A8017093A90178
:100AC0008093AA019093AB016DA17EA18FA198A5FF
:100AD000A80197010E94260918160CF462C08DA186
:100AE0009EA1AFA1B8A58093A8019093A901A0935E
:100AF000AA01B093AB011092B2016D897E898F89F2
:100B0000988D29813A814B815C810E94B20AA201B1
:100B100091010E94C2087B018C016093AC0170932B
:100B2000AD018093AE019093AF0169A17AA18BA131
:100B30009CA1A80197010E94260918160CF061C11A
:100B4000A0904401B0904501C0904601D09047016B
:100B5000C801B701A60195010E942609181644F0A4
:100B6000A092AC01B092AD01C092AE01D092AF01A3
:100B7000AC960FB6F894DEBF0FBECDBFCF91DF911C
:100B80001F910F91FF90EF90DF90CF90BF90AF90AB
:100B90009F908F907F906F905F904F903F902F909D
:100BA0000895A0902C01B0902D01C0902E01D090FE
:100BB0002F01C801B701A60195010E942609181648
:100BC0000CF499CFA092A801B092A901C092AA01F9
:100BD000D092AB0190CFA0901801B0901901C090B5
:100BE0001A01D0901B01C801B701A60195010E940E
:100BF000260918160CF44CCFA092A401B092A501BE
:100C0000C092A601D092A70143CFC801B7010E94AC
:100C1000B20AA20191010E94C2087B018C01D0900E
:100C20004801C0904901B0904A01A0904B012D2D80
:100C30003C2D4B2D5A2D0E94AE0A88230CF4C4C0C3
:100C40008D2D9C2DAB2DBA2D7C018D0159CED090D0
:100C50004401C0904501B0904601A0904701C201F7
:100C6000B1012D2D3C2D4B2D5A2D0E942609181611
:100C70000CF42FCE8D2D9C2DAB2DBA2D1C012D01EA
:100C800028CE8091380190913901A0913A01B0911C
:100C90003B0189839A83AB83BC83BC01CD012D8941
:100CA0003E894F89588D0E94B20A2091AC01309143
:100CB000AD014091AE015091AF010E94C2081B01ED
:100CC0002C01EACD10912C0100912D01F0902E0104
:100CD000E0902F016D857E858F859889212F302F9B
:100CE0004F2D5E2D0E94260918160CF47ACD812F07
:100CF000902FAF2DBE2D8D879E87AF87B88B71CD7E
:100D00008091200190912101A0912201B0912301B5
:100D10008D839E83AF83B887BC01CD01298D3A8D29
:100D20004B8D5C8D0E94B20A2091A8013091A901DF
:100D30004091AA015091AB010E94C2086D877E8745
:100D40008F87988B2DCD1091180100911901F0908B
:100D50001A01E0901B0169897A898B899C89212F6E
:100D6000302F4F2D5E2D0E94260918160CF4D9CC79
:100D7000812F902FAF2DBE2D898B9A8BAB8BBC8B87
:100D8000D0CC80910C0190910D01A0910E01B091F9
:100D90000F0189879A87AB87BC87BC01CD012D8D58
:100DA0003E8D4F8D58A10E94B20A2091A40130912E
:100DB000A5014091A6015091A7010E94C208698B2C
:100DC0007A8B8B8B9C8B8CCCD0904C01C0904D013E
:100DD000B0904E01A0904F01C801B7012D2D3C2DC0
:100DE0004B2D5A2D0E94260918160CF489CD8D2DF5
:100DF0009C2DAB2DBA2D7C018D0182CD2B98299A8B
:100E000009CC89A19AA1ABA1BCA18093AC0190931C
:100E1000AD01A093AE01B093AF01AACE81E0809363
:100E20008B01D401C301B05880939C0190939D0124
:100E3000A0939E01B0939F01CECDC601B5019058FD
:100E40000E942F0988279927861B970B81CD6091D7
:100E50007801709179018DE091E30E94150B88274C
:100E600077FD8095982F0E945D0960938E017093A5
:100E70008F018093900190939101F7CBE0917501E0
:100E8000F091760111821082E4EAF1E08FE0DF0157
:100E90001D928A95E9F780E88093610083E0809352
:100EA00061001092700088E08093B60088EC809317
:100EB000B30010926E0081E0809381008093B000B7
:100EC0002091B6008091B60090E08470907030E080
:100ED00021703070822B932B892B91F74FEF51E0CB
:100EE00046BB47BB10928500109284001092B2005E
:100EF000B99BFECF10928100B09B08C08091660024
:100F00008F5F8093660050938100EACF90918400B8
:100F100080918500382F20E0B901690F711DCB0148
:100F200078E18B36970734F080916600815080938A
:100F30006600E9CF885E97410CF321E020938100A1
:100F400080E880936100109261001092640089E64D
:100F500084BD17BC10926E008CE08093B0008CE7CB
:100F60008093B30092E0909370001092B60010BA94
:100F700011BA1092C50088E08093C4009093C0001D
:100F800088E98093C10086E08093C2008AE784B933
:100F900015B880916C00846080936C00E79AEF9A9A
:100FA000109280009093810010926F0081EC8093EA
:100FB0007C0086E880937A008DB1837F8DB98EB1F5
:100FC0008C608EB980916B008C6080936B00E69A88
:100FD000EE9A809168019091690190938A018093C3
:100FE000890180916A0190916B01909393018093A4
:100FF000920180916C0190916D019093A101809379
:10100000A0018091730180938B0180916E0190917A
:101010006F019093A3018093A2018091540190915C
:101020005501A0915601B09157018093B40190935E
:10103000B501A093B601B093B7018091580190918A
:101040005901A0915A01B0915B0180938E01909358
:101050008F01A0939001B093910180915C019091D8
:101060005D01A0915E01B0915F0180939801909322
:101070009901A0939A01B0939B0180916001909196
:101080006101A0916201B091630180939C019093F2
:101090009D01A0939E01B0939F0180917401809364
:1010A000B3018091640190916501A0916601B091B6
:1010B00067018093940190939501A0939601B0935A
:1010C00097011092870110928601109281018FEF93
:1010D00080937A0110927C011092820110927D011E
:1010E00010927901109278011092850110927B0183
:1010F0008091100190911101A0911201B091130102
:101100008093A4019093A501A093A601B093A70199
:101110008091240190912501A0912601B091270191
:101120008093A8019093A901A093AA01B093AB0169
:1011300080913C0190913D01A0913E01B0913F0111
:101140008093AC019093AD01A093AE01B093AF0139
:101150002093B0012093B1012093B20108950E9421
:101160003E0778940E94E10080917F019091800178
:101170000197C1F70E94E6021092800110927F0150
:10118000F1CF5058BB27AA270ED097C188D130F095
:101190008DD120F031F49F3F11F41EF47DC10EF487
:1011A000E095E7FB4AC1E92F99D180F3BA176207AE
:1011B00073078407950718F071F49EF5C8C10EF403
:1011C000E0950B2EBA2FA02D0B01B90190010C0157
:1011D000CA01A0011124FF27591B99F0593F50F46F
:1011E000503E68F11A16F040A22F232F342F4427C7
:1011F000585FF3CF469537952795A795F0405395BF
:10120000C9F77EF41F16BA0B620B730B840BBAF08E
:101210009150A1F0FF0FBB1F661F771F881FC2F7F9
:101220000EC0BA0F621F731F841F48F4879577950D
:101230006795B795F7959E3F08F0B3CF9395880FC4
:1012400008F09927EE0F979587950895D2D008F466
:1012500081E0089504D06894B1117AC1089546D10F
:1012600088F09F5790F0B92F9927B751A0F0D1F08F
:10127000660F771F881F991F1AF0BA95C9F712C019
:10128000B13081F064D1B1E0089561C1672F782F4A
:101290008827B85F39F0B93FCCF386957795679585
:1012A000B395D9F73EF490958095709561957F4FF1
:1012B0008F4F9F4F0895E89409C097FB3EF4909597
:1012C0008095709561957F4F8F4F9F4F9923A9F01F
:1012D000F92F96E9BB279395F695879577956795AE
:1012E000B795F111F8CFFAF4BB0F11F460FF1BC0F2
:1012F0006F5F7F4F8F4F9F4F16C0882311F096E985
:1013000011C0772321F09EE8872F762F05C0662332
:1013100071F096E8862F70E060E02AF09A95660FEB
:10132000771F881FDAF7880F9695879597F90895A4
:10133000F7D080F09F3740F491110EF009C160E0C2
:1013400070E080E89FEB089526F41B16611D711D67
:10135000811D79C093C0A3D018F011F0A7D038F444
:101360009BC0F6C0E92FBAD0B0F35523C9F3E7FB11
:101370006217730784079507A8F199F3E92FFF27F0
:1013800088232AF03197660F771F881FDAF7952F89
:101390005527442332F091505040220F331F441FF1
:1013A000D2F7BB27E91BF50B621B730B840BB1094A
:1013B000C1F222F4620F731F841FB11D31972AF00E
:1013C000660F771F881FBB1FEFCF915050405AF018
:1013D00041F0882332F0660F771F881F91505040EC
:1013E000C1F793954BC08695779567959F5FD9F721
:1013F000F8CF990F0008550FAA0BE0E8FEEF16167C
:101400001706E807F907C0F012161306E407F507F8
:1014100098F0621B730B840B950B39F40A2661F06C
:10142000232B242B252B21F408950A2609F4A1400F
:10143000A6958FEF811D811D089597F99F6780E81C
:1014400070E060E00895882371F4772321F09850CC
:10145000872B762F07C0662311F499270DC0905172
:10146000862B70E060E02AF09A95660F771F881F40
:10147000DAF7880F9695879597F908959F3F31F091
:10148000915020F4879577956795B795880F911DB2
:101490009695879597F908959FEF80EC089500241D
:1014A0000A941616170618060906089500240A94C9
:1014B00012161306140605060895092E0394000C4F
:1014C00011F4882352F0BB0F40F4BF2B11F460FFDE
:1014D00004C06F5F7F4F8F4F9F4F089557FD905807
:1014E000440F551F59F05F3F71F04795880F97FBE8
:1014F000991F61F09F3F79F08795089512161306A2
:101500001406551FF2CF4695F1DF08C016161706D0
:101510001806991FF1CF8695710561050894089505
:10152000E5DFA0F0BEE7B91788F4BB279F3860F469
:101530001616B11D672F782F8827985FF7CF8695ED
:1015400077956795B11D93959639C8F30895E894FA
:10155000BB2766277727CB0197F908954ADF08F460
:101560008FEF08950BD0A9CF9ADF28F09FDF18F0F6
:10157000952309F062CF90CF1124EACFAFDFA0F31B
:10158000959FD1F3950F50E0551F629FF001729F18
:10159000BB27F00DB11D639FAA27F00DB11DAA1F37
:1015A000649F6627B00DA11D661F829F2227B00D84
:1015B000A11D621F739FB00DA11D621F839FA00D0F
:1015C000611D221F749F3327A00D611D231F849F5F
:1015D000600D211D822F762F6A2F11249F575040B6
:1015E0008AF0E1F088234AF0EE0FFF1FBB1F661F51
:1015F000771F881F91505040A9F79E3F510570F00A
:101600001CCFA6CF5F3FECF3983EDCF38695779531
:101610006795B795F795E7959F5FC1F7FE2B880F04
:10162000911D9695879597F9089597FB092E0726A2
:101630000AD077FD04D00CD006D000201AF47095A3
:1016400061957F4F0895F6F7909581959F4F089586
:10165000AA1BBB1B51E107C0AA1FBB1FA617B707D8
:1016600010F0A61BB70B881F991F5A95A9F78095F4
:0C1670009095BC01CD010895F894FFCFC7
:10167C00000000000AD7233C0000A041CDCCCC3C9C
:10168C0000000000CDCCCC3DCDCCCCBD0AD7233E48
:10169C0039B4C83C00000000CDCCCC3DCDCCCCBD89
:1016AC00D34D623ECDCC4C3EE5D0023F0000000055
:1016BC00CDCCCC3D000000000000803F00000000BD
:1016CC0000007F430000000000000000000000004C
:1016DC0000000000000000000000000000000000FE
:0816EC0000500000008C010019
:0400000500800185F1
:00000001FF
